S0130000436F6D6D5F41544D3332382E73726563A7
S11300000C94B5000C9491010C94E1000C94E10063
S11300100C94E1000C94E1000C94E1000C94E100D8
S11300200C94E1000C94E1000C94E1000C94E100C8
S11300300C94E1000C943E010C94E1000C94E1005A
S11300400C9408040C940B050C9494040C942C0448
S11300500C946E040C94E1000C94E1000C94E10007
S11300600C94E1000C94E1006E616E00696E660010
S113007000407A10F35A00A0724E18090010A5D45B
S1130080E80000E87648170000E40B54020000CAB8
S11300909A3B000000E1F5050000809698000000FE
S11300A040420F000000A08601000000102700005D
S11300B00000E803000000006400000000000A00E3
S11300C0000000000100000000002C76D888DC67E6
S11300D04F0823DFC1DFAE59E1B1B796E5E3E4533E
S11300E0C63AE651997696E8E6C28426EB898C9B5B
S11300F062ED407C6FFCEFBC9C9F40F2BAA56FA5FB
S1130100F490055A2AF75C936B6CF9676DC11BFC7C
S1130110E0E40D47FEF520E6B500D0ED902E030097
S1130120943577050080841E080000204E0A0000E4
S113013000C80C333333330F986E12831141EF8DA3
S11301402114893BE65516CFFEE6DB18D1844B38E3
S11301501BF77C1D901DA4BBE424203284725E2214
S11301608100C9F124ECA1E53D2711241FBECFEF86
S1130170D8E0DEBFCDBF84B78093D40214BE0FB6DF
S1130180F894A89580916000886180936000109233
S113019060000FBE11E0A0E0B1E0E2E8F8E102C0C7
S11301A005900D92A032B107D9F722E0A0E2B1E0A8
S11301B001C01D92A43DB207E1F70E94DF010C9437
S11301C03F0C0C94000080E090E00E94100C80939F
S11301D08A0181E090E00E941E0CBC016F5F7F4F9A
S11301E07093A4016093A30181E090E00E943A0C13
S11301F083E090E00E94180C60938F01709390014B
S1130200809391019093920187E090E00E94180CF2
S113021060938B0170938C0180938D0190938E0178
S11302204FE050E060E170E083E991E00E94000C4F
S11302300895CF93DF93EC01688180E090E00E9401
S1130240240C888180938A01DF91CF910895CF9304
S1130250DF93EC01FB01408151816281738187E06E
S113026090E00E94320C488159816A817B8183E04D
S113027090E00E94320CDF91CF9108951F920F926B
S11302800FB60F9211242F933F934F938F939F9305
S113029020912401309125012F5F3F4F3093250198
S11302A0209324018091220190912301019690933F
S11302B02301809322012039314039F421E0209335
S11302C0210110922501109224010F9739F481E045
S11302D080932001109223011092220180914C01FD
S11302E0813039F410924C01459A439A449A4398C8
S11302F00EC0811104C045984398449A08C08230C6
S113030031F4459A439A449A459810924C019F912E
S11303108F914F913F912F910F900FBE0F901F908F
S113032018951F920F920FB60F9211240F900FBEC3
S11303300F901F90189584B184B9249A1CBC1DBCDD
S11303408CB582688CBD8CB580648CBD0895E1E861
S1130350F0E0808185608083EFE6F0E08081816059
S11303608083089585B5816085BDEEE6F0E08081E7
S11303708160808308951092C50089E18093C40050
S113038082E08093C00086E08093C20088ED809371
S1130390C100549A0E94700280E280934B010E9433
S11303A0B201089587B1886387B95298539AE9E6F0
S11303B0F0E0808183608083E89A5B9808950FB6AB
S11303C0F894A895809160008861809360001092F1
S11303D060000FBE0E94D20145984398449A0E943F
S11303E0E3002FEF89E698E1215080409040E1F747
S11303F000C000000E94BB010E949B010E94A70153
S11304000BE811E02FE831E040E051E066E271E0F2
S113041081E091E00E94B4057894459A439A449A05
S113042043989FE088E10FB6F894A8958093600004
S11304300FBE90936000A8950E94F003A895809148
S11304405101813011F50E946B0282FD1EC00E9491
S11304506B0281FD1AC00E946B028823B4F061E034
S113046071E083E691E00E948D05882361F003ED3D
S113047011E029EC31E04AEC51E069EA71E083E6ED
S113048091E00E942B061092510180912101882352
S113049079F0A8950BE811E02FE831E040E051E055
S11304A066E271E081E091E00E94B40510922101BE
S11304B080912001882341F06BE871E08FE891E09E
S11304C00E9427011092200187EC90E00197F1F738
S11304D000C00000B0CF80914B0108955C9A08954C
S11304E05C980895CF93DF93EC016F5FD9F0FC0122
S11304F0DC01A60FB11D2FEF3FEF9081292798E073
S1130500A9014170552736952795452B21F081E0A7
S1130510282780EA3827915099F73196EA17FB0784
S113052061F702C02FEF3FEF462F50E0FE01E40FCA
S1130530F51F808190E0B90177278617970759F452
S1130540DA011196AC0FBD1F8C9190E0632F7727D1
S11305508617970749F020834F5F5F4FFE01E40F32
S1130560F51F308380E001C081E0DF91CF910895D1
S113057080E280934B0110924A0110924901089540
S113058080914B0185FF6FC08091490190914A0190
S1130590019690934A018093490180914B0181FF18
S11305A057C08091490190914A01419731F480915B
S11305B04B01806480934B0108958091490190918F
S11305C04A01CB9709F04FC088E080934B0180919A
S11305D08F0190919001A0919101B09192010196A7
S11305E0A11DB11D80938F0190939001A09391015F
S11305F0B09392019091D40180918A01981325C0FF
S11306006091470170914801635084ED91E00E942C
S11306107202882321F081E080934C010895809137
S11306208B0190918C01A0918D01B0918E01019666
S1130630A11DB11D80938B0190938C01A0938D011A
S1130640B0938E010E94B80208950E94B8020895E2
S11306508091490190914A01CB9729F480914B01F3
S1130660816080934B01089592E0980F909302016A
S1130670682F84ED91E00E94720280914B018061A9
S113068080934B0110924801109247010E946E0220
S1130690E1ECF0E080818062808380914B01877F70
S11306A080934B010895E4EDF1E09181906891838A
S11306B0828382E00E9434030895E4EDF1E08581B1
S11306C0248190E0922B0895E4EDF1E0838122816E
S11306D090E0922B0895442381F0A82FB92FE62FA0
S11306E0F72F80E02D913C91119730832D913D910E
S11306F021838F5F32964813F5CF0895CF92DF920E
S1130700EF92FF920F931F93CF93DF938C016B01B2
S1130710EA010E945D037C010E9464038C159D051F
S113072008F43FC0CC0DDD1D9701280F391FC217F7
S1130730D307B8F12091D501233009F048C09701BF
S1130740220F331F2C3F3105A8F49E2D990FC4EDC1
S1130750D1E09A838C1990E0880F991F4E2D67ED94
S113076071E0800F911F0E946B038A818E5F0E944B
S113077034032DC083E00E94530380918B01909138
S11307808C01A0918D01B0918E010196A11DB11D26
S113079080938B0190938C01A0938D01B0938E0173
S11307A016C083E00E94530380918B0190918C01C9
S11307B0A0918D01B0918E010196A11DB11D809370
S11307C08B0190938C01A0938D01B0938E01DF91E6
S11307D0CF911F910F91FF90EF90DF90CF900895EC
S11307E080914B0183FF13C08091D501833019F0B0
S11307F0813169F009C040E150E060E070E087E2D7
S113080091E00E947E03089581E00E9453030895BD
S11308101F920F920FB60F9211242F933F934F9371
S11308205F936F937F938F939F93AF93BF93EF9354
S1130830FF930E94C002FF91EF91BF91AF919F91EE
S11308408F917F916F915F914F913F912F910F9075
S11308500FBE0F901F9018951F920F920FB60F9214
S113086011242F933F938F939F93EF93FF93809142
S11308704B018F7E80934B0180914B018460809368
S11308804B01E0914701F0914801EC52FE4F808109
S11308908093C600809147019091480101969093FE
S11308A048018093470180910201209147013091D2
S11308B0480190E001968217930729F4E1ECF0E0F7
S11308C080818F7D8083FF91EF919F918F913F91E4
S11308D02F910F900FBE0F901F9018951F920F929B
S11308E00FB60F9211242F933F934F935F936F93FF
S11308F07F938F939F93AF93BF93EF93FF930E9444
S113090070020E94B802FF91EF91BF91AF919F9145
S11309108F917F916F915F914F913F912F910F90A4
S11309200FBE0F901F9018951F920F920FB60F9243
S113093011242F933F934F935F936F937F938F93E0
S11309409F93AF93BF93EF93FF939091C600109240
S11309504A011092490180914B0183FD2CC0809182
S11309604B0184FD28C080914B0182FD24C08091FD
S11309704B0181FF20C080914B0180FD1CC0209160
S11309804701309148012F3F310521F018F00E94B2
S1130990B80230C0E0914701F0914801EC52FE4F9B
S11309A0908380914701909148010196909348016A
S11309B0809347011FC080914B0183FD1BC0809130
S11309C04B0184FD17C080914B0182FD13C08091BF
S11309D04B0181FD0FC080914B0180FF0BC09093B0
S11309E0D40182E280934B0181E090E0909348012E
S11309F080934701FF91EF91BF91AF919F918F91A8
S1130A007F916F915F914F913F912F910F900FBE06
S1130A100F901F9018951F920F920FB60F921124EA
S1130A208F939F93EF93FF938EB5809353018E33EF
S1130A3099F480915201813009F060C08091500195
S1130A40853209F04FC01092520181E08093510128
S1130A5080934F0180E04AC080915001863238F083
S1130A605B9A109252015B9883E680934F018091C8
S1130A7052018130D9F580915001E82FF0E0ED5911
S1130A80FE4F9091530190838F5F8093500180912A
S1130A904D0190914E01019690934E0180934D012A
S1130AA080915201813071F01AC0811118C0809177
S1130AB05101811114C081E08093520110925001C0
S1130AC0E0E004C0E0915001EF3030F4F0E0EC5A83
S1130AD0FE4F80818EBD18C08AEA8EBD15C08FEF8F
S1130AE08EBD12C0863208F0BBCFC5CF90915301A2
S1130AF09C33A9F7DACF80915201F8CF809150014D
S1130B00863208F0ADCFF7CFFF91EF919F918F918F
S1130B100F900FBE0F901F901895DC01FC01AC01E3
S1130B204D5D5F4F20E030E09191290F311DE417B6
S1130B30F507D1F793964C91939750E0542F44279F
S1130B4094968C91FA01E82BCF012817390751F0BC
S1130B50FB0180818F5F80835B9A109252015B98C6
S1130B6080E0089581E008950F931F93CF93DF935E
S1130B70EC01F90180819181A281B3818093A50167
S1130B809093A601A093A701B093A801F8018081D6
S1130B909181A281B3818093CB019093CC01A093E6
S1130BA0CD01B093CE01A4E5B1E08FE0FD01119237
S1130BB08A95E9F71F929FEF9F931F929F93EBEC07
S1130BC0F1E083811F928F9382811F928F938181A1
S1130BD01F928F9380811F928F93E5EAF1E08381C6
S1130BE01F928F9382811F928F9381811F928F9383
S1130BF080811F928F93FA0180811F928F93FB0152
S1130C0080811F928F9388811F928F9383E091E05C
S1130C109F938F93BF93AF930E94800BE5E5F1E020
S1130C2040E651E08DB79EB74E960FB6F8949EBF3E
S1130C300FBE8DBF80E090E02191820F911DE417DB
S1130C40F507D1F7E4E5F1E094878587DF91CF914B
S1130C501F910F910895CF92DF92EF92FF920F931D
S1130C601F93CF93DF93FC017A018081DA018C9387
S1130C708181E90188838281D8018C933396862F00
S1130C80972F0F2EF7E2CF2EF1E0DF2EF02D27E481
S1130C9031E0AFECB1E04081518111965C934E9309
S1130CA04281538113965C934E9312974D915D91BB
S1130CB06D917C911397EC014993599369937993BE
S1130CC0CE014D915D916D917C911397E60149930D
S1130CD05993699379936E013496C217D307D9F661
S1130CE0F80180818F33E1F410928F01109290010A
S1130CF0109291011092920110928B0110928C012A
S1130D0010928D0110928E016BE871E08FE891E0F2
S1130D100E94270161E070E081E090E00E943A0CBB
S1130D20D7019C9180918A01981719F0C7010E94FC
S1130D301901DF91CF911F910F91FF90EF90DF90F8
S1130D40CF900895A0E1B0E0E8EAF6E00C941F0A21
S1130D507C011B016A01FC0117821682838181FFD9
S1130D6044C39E012F5F3F4F3901F7019381F10185
S1130D7093FD859193FF81911F01882309F431C369
S1130D80853239F493FD859193FF81911F0185325A
S1130D9039F4B70190E00E94440B56016501E5CF98
S1130DA010E0512C912CFFE1F915D8F08B3279F039
S1130DB038F4803279F08332A1F4F92DF0612EC039
S1130DC08D3261F0803369F4292D21602DC0392DD5
S1130DD03260932E892D8460982E2AC0E92DE86014
S1130DE015C097FC2DC020ED280F2A3088F496FEFC
S1130DF006C03AE0139F200D1124122F19C08AE077
S1130E00589E200D1124522EE92DE0629E2E10C012
S1130E108E3231F496FCE5C2F92DF0649F2E08C0A1
S1130E208C3621F4292D2068922E02C0883641F494
S1130E30F10193FD859193FF81911F018111B3CF3E
S1130E409BEB980F933020F4992D9061805E07C03E
S1130E509BE9980F933008F066C1992D9F7E96FF09
S1130E6016E09F73992E853619F49064992E08C064
S1130E70863621F4392F3068932E02C01111115097
S1130E8097FE07C01C3350F444244394410E27E0DA
S1130E900BC0183038F027E017E005C027E09CE3CA
S1130EA0492E02C0212F412C560184E0A80EB11C0A
S1130EB0F6016081718182819381042DA3010E94D6
S1130EC0560A6C01F981FC87F0FF02C0F3FF06C0EB
S1130ED091FC06C092FE06C000E205C00DE203C00C
S1130EE00BE201C000E08C858C7019F001115AC22C
S1130EF09BC297FE10C04C0CFC85F4FF04C08A8191
S1130F00813309F44A94141474F528E0241578F50F
S1130F1088E0482E2CC096FC2AC0812F90E08C15C6
S1130F209D059CF03CEFC3163FEFD30674F0892D6A
S1130F308068982E0AC0E2E0F0E0EC0FFD1FE10F9C
S1130F40F11D8081803319F411501111F4CF97FEF3
S1130F500EC044244394410E812F90E0C816D90654
S1130F602CF41C1904C04424439401C010E097FEDF
S1130F7006C01C141D0434F4C601019605C085E0A6
S1130F8090E002C081E090E001110196112331F05C
S1130F90212F30E02F5F3F4F820F931F252D30E02C
S1130FA08217930714F4581A01C0512C892D8970A3
S1130FB049F4552039F0B70180E290E00E94440BD7
S1130FC05A94F7CF002329F0B701802F90E00E94B4
S1130FD0440B93FC09C0552039F0B70180E390E03D
S1130FE00E94440B5A94F7CF97FE4CC04601D7FE9B
S1130FF002C0812C912CC60188199909F301E80FCC
S1131000F91FFE87ED87960124193109388B2F8744
S1131010012F10E01195019511093FEF83169306F6
S113102029F4B7018EE290E00E94440BC814D9045D
S11310304CF08F8598898815990524F4ED85FE85F3
S1131040818101C080E3F1E08F1A91082D853E85EE
S11310502F5F3F4F3E872D87801691062CF0B701F6
S113106090E00E94440BD9CFC814D90441F49A816A
S1131070963320F4953319F43C8534FF81E3B701AA
S113108090E04EC08A81813319F09C859F7E9C87B5
S1131090B70190E00E94440B111105C094FC18C0E4
S11310A085E690E017C0B7018EE290E00E94440B01
S11310B01E5F82E001E0080FF301E80FF11D80815B
S11310C0B70190E00E94440B802F0113F3CFE6CFC9
S11310D085E490E0B7010E94440BD7FC06C0C1141C
S11310E0D10441F4EC85E4FF05C0D194C194D10846
S11310F08DE201C08BE2B70190E00E94440B80E3D3
S11311002AE0C216D1042CF08F5FFAE0CF1AD1087E
S1131110F7CFB70190E00E94440BB701C601C09617
S11311200E94440B54C1833631F0833779F0833500
S113113009F056C020C0560132E0A30EB11CF601DE
S11311408081898301E010E0630112C05601F2E05E
S1131150AF0EB11CF601C080D18096FE03C0612F92
S113116070E002C06FEF7FEFC6010E94390B8C0163
S1131170F92DFF7714C0560122E0A20EB11CF6012E
S1131180C080D18096FE03C0612F70E002C06FEF73
S11311907FEFC6010E942E0B8C01F92DF0689F2E63
S11311A0F3FD1AC0852D90E008171907A8F4B701BC
S11311B080E290E00E94440B5A94F4CFF60197FC2D
S11311C0859197FE81916F01B70190E00E94440BD5
S11311D051105A94015011090115110579F7F7C0FE
S11311E0843611F0893661F5560197FE09C024E072
S11311F0A20EB11CF60160817181828193810AC0C3
S1131200F2E0AF0EB11CF60160817181072E000C73
S1131210880B990BF92DFF769F2E97FF09C09095A7
S11312208095709561957F4F8F4F9F4FF0689F2EEB
S11312302AE030E0A3010E94A20BC82EC6183FC0CA
S1131240092D853721F40F7E2AE030E01DC0097F87
S11312508F3691F018F4883559F0C3C0803719F0EF
S1131260883711F0BEC0006104FF09C0046007C0E4
S113127094FE08C0066006C028E030E005C020E106
S113128030E002C020E132E0560107FF09C084E0EB
S1131290A80EB11CF601608171818281938108C01E
S11312A0F2E0AF0EB11CF6016081718180E090E044
S11312B0A3010E94A20BC82EC6180F77902E96FE8B
S11312C00BC0092D0E7FC11650F494FE0AC092FC87
S11312D008C0092D0E7E05C0DC2C092D03C0DC2CB2
S11312E001C0D12E04FF0DC0FE01EC0DF11D808163
S11312F0803311F4097E09C002FF06C0D394D3944D
S113130004C0802F867809F0D39403FD11C000FF38
S113131006C01C2DD51480F4150D1D190DC0D5144F
S113132058F4B70180E290E00E94440BD394F7CFC5
S1131330D51410F45D1801C0512C04FF10C0B7017E
S113134080E390E00E94440B02FF17C001FD03C03C
S113135088E790E002C088E590E0B7010CC0802FD8
S1131360867859F001FF02C08BE201C080E207FDDC
S11313708DE2B70190E00E94440BC11638F4B70126
S113138080E390E00E94440B1150F7CFCA94F3011C
S1131390EC0DF11D8081B70190E00E94440BC11057
S11313A0F5CF15C0F4E0F51560F584E0581A93FE06
S11313B01FC0011127C02C8523FF2AC008E610E0B6
S11313C0392D3071932EF8018491811124C0552058
S11313D009F4E4CCB70180E290E00E94440B5A94F3
S11313E0F6CFF7018681978126C08FEF9FEF23C048
S11313F0B70180E290E00E94440B5A945110F8CF58
S1131400D8CF512CB701802F90E00E94440BD3CF4A
S11314100CE610E0D5CF91108052B70190E00E9405
S1131420440B0F5F1F4FCFCF23E0251510F483E04B
S1131430BDCF512CC0CF6096E2E10C943B0A2F92B1
S11314403F924F925F926F927F928F929F92AF9250
S1131450BF92CF92DF92EF92FF920F931F93CF939D
S1131460DF93CDB7DEB7CA1BDB0B0FB6F894DEBF34
S11314700FBECDBF09942A88398848885F846E845A
S11314807D848C849B84AA84B984C884DF80EE80A4
S1131490FD800C811B81AA81B981CE0FD11D0FB6AD
S11314A0F894DEBF0FBECDBFED010895283008F0DB
S11314B027E03327DA01990F311D87FD91600096EB
S11314C06105710539F432602E5F3D9330E32A954E
S11314D0E1F708959F3F30F080387105610509F008
S11314E03C5F3C5F3D93913008F08068911DDF9331
S11314F0CF931F930F93FF92EF92192F987F969596
S1131500E92F96959695E90FFF27E653FF4F992704
S11315103327EE24FF24A701E701059008940794DC
S113152028F4360FE71EF81E491F511D660F771F5A
S1131530881F991F0694A1F70590079428F4E70ED5
S1131540F81E491F561FC11D770F881F991F661F5C
S11315500694A1F70590079428F4F80E491F561F26
S1131560C71FD11D880F991F661F771F0694A1F707
S11315700590079420F4490F561FC71FD81F990FD1
S1131580661F771F881F0694A9F78491109517701A
S113159041F0D695C79557954795F794E7941A95D2
S11315A0C1F7E0E7F0E068941590159135916591E5
S11315B0959105907FE27395E118F10A430B560B60
S11315C0C90BD009C0F7E10CF11E431F561FC91FF8
S11315D0D01D7EF4703311F48A95E6CFE89401505F
S11315E030F0080F0AF40027021708F4202F23957F
S11315F0022F7A3328F079E37D932A95E9F710C016
S11316007D932A9589F6069497956795379517954E
S11316101794E118F10A430B560BC90BD00998F043
S113162023957E9173957A3308F070E37C932013AD
S1131630B8F77E9170617D9330F0839571E37D936B
S113164070E32A95E1F71124EF90FF900F911F9119
S1131650CF91DF91992787FD90950895FC0105901E
S1131660615070400110D8F7809590958E0F9F1FA0
S11316700895FC016150704001900110D8F78095E5
S113168090958E0F9F1F08950F931F93CF93DF9311
S1131690FB01238121FD03C08FEF9FEF2CC022FFAC
S11316A016C046815781248135814217530744F47B
S11316B0A081B1819D012F5F3F4F318320838C93A3
S11316C0268137812F5F3F4F3783268314C08B01D8
S11316D0EC01FB010084F185E02D0995892BE1F6ED
S11316E0D80116968D919C911797019617969C9305
S11316F08E931697CE01DF91CF911F910F9108958C
S1131700AEE0B0E0E6E8FBE00C942D0A0D891E89FA
S113171086E08C831A8309838FEF9FE79E838D83F2
S1131720AE01475E5F4F6F89788DCE0101960E94AE
S1131730A206EF81F885E00FF11F10822E96E4E0F7
S11317400C94490AFA01AA27283051F1203181F179
S1131750E8946F936E7F6E5F7F4F8F4F9F4FAF4FB5
S1131760B1E03ED0B4E03CD0670F781F891F9A1FC8
S1131770A11D680F791F8A1F911DA11D6A0F711D7C
S1131780811D911DA11D20D009F468943F912AE088
S1131790269F11243019305D3193DEF6CF01089570
S11317A0462F4770405D4193B3E00FD0C9F7F6CFA1
S11317B0462F4F70405D4A3318F0495D31FD405269
S11317C0419302D0A9F7EACFB4E0A69597958795FF
S11317D077956795BA95C9F70097610571050895DE
S11317E09B01AC010A2E069457954795379527958A
S11317F0BA95C9F7620F731F841F951FA01D089522
S1131800DC01CB01FC01F999FECF06C0F2BDE1BDBC
S1131810F89A319600B40D9241505040B8F70895AB
S1131820F999FECF92BD81BDF89A992780B50895A4
S1131830A6E1B0E044E050E00C94020CA8E1B0E072
S113184042E050E00C94020C262FF999FECF1FBA07
S113185092BD81BD20BD0FB6F894FA9AF99A0FBED5
S113186001960895242F0E94250C252F0E94250CF3
S11318700C943A0C0E94240C272F0C94250CF894F9
S1051880FFCF94
S11318820805073C256325632563256325632563D2
S113189225632563256325632563256325633E004C
S9030000FC
